:04000000FEEF3FF0E0
:0B0D0000000240020900888EE8EE00AF
:100D0C00266E000E2A6E2A500C0D6100CCF32BF5CA
:100D1C0026C527F520C528F521C529F5030E2C6E0F
:100D2C002750030B226E236A060E2224F66E0D0E3C
:100D3C002320F76E600E246E050E256E2B50242694
:100D4C00000E25222C502424D96E000E2520DA6E9C
:100D5C000800F5C4DFF42740E8423F0B276E2C0651
:100D6C002C28D8A4BCEF06F0BEEF06F096EF06F0E8
:100D7C00040E2B26030E2C6E2850030B226E236AB6
:100D8C00060E2224F66E0D0E2320F76E600E246ED6
:100D9C00050E256E2B502426000E25222C502424C3
:100DAC00D96E000E2520DA6E0800F5C4DFF4284059
:100DBC00E8423F0B286E2C062C28D8A4E8EF06F04E
:100DCC00EAEF06F0C2EF06F0040E2B26030E2C6E93
:100DDC002950030B226E236A060E2224F66E0D0E8A
:100DEC002320F76E600E246E050E256E2B502426E4
:100DFC00000E25222C502424D96E000E2520DA6EEC
:100E0C000800F5C4DFF42940E8423F0B296E2C069C
:100E1C002C28D8A414EF07F016EF07F0EEEF06F02D
:100E2C002A2A030E2A641DEF07F01FEF07F089EF43
:100E3C0006F012002CEC08F000018A9D000E206ECA
:100E4C00000E216EFF0E86EC06F0BAEC07F0000ED9
:100E5C001F6E290E2E6E960E2D6E7F0EE82EFED76F
:100E6C002D2EFCD72E2EFAD700F01F2A090E1F6448
:100E7C0042EF07F044EF07F02FEF07F0FF0E206E64
:100E8C00000E216E000E86EC06F0BAEC07F0000E98
:100E9C001F6E290E2E6E960E2D6E7F0EE82EFED72F
:100EAC002D2EFCD72E2EFAD700F01F2A090E1F6408
:100EBC0062EF07F064EF07F04FEF07F0FF0E206EC4
:100ECC00FF0E216E000E86EC06F0BAEC07F0000E59
:100EDC001F6E290E2E6E960E2D6E7F0EE82EFED7EF
:100EEC002D2EFCD72E2EFAD700F01F2A090E1F64C8
:100EFC0082EF07F084EF07F06FEF07F024EF07F0B5
:100F0C00FEEF3FF0100EBE6E000EBF6E000EC06EF8
:100F1C002F0EC66E300EC76EC868330E0401106FEC
:100F2C00000E086F370E006F000E096F000E016F78
:100F3C00000E116F000E026F000E0A6F000E126F82
:100F4C00370E036FF00E0B6F13693F0E046FF00E2C
:100F5C000C6F14690E0E02016A6F1B0E0F6F1C0EC4
:100F6C00106F120E6B6F12000001848F300E826FA7
:100F7C00000E206EB6A2C5EF07F0C7EF07F0C0EF6A
:100F8C0007F0600E2024D96EDA6A050EDA22DF50E3
:100F9C000001816F202A2F0E2064D7EF07F0D9EFC4
:100FAC0007F0C0EF07F0150EE82EFED700F0000199
:100FBC00849F12006A0EF66E100EF76E000EF86E1D
:100FCC0001EE2FF110EE05F00900F5C4EEF4E5503A
:100FDC00E150FAE101EE60F1300EEE6AE806FDE157
:100FEC0001EE01F11F0EEE6AE806FDE1000EF86E4F
:100FFC000D0EF76E000120EF07F0000E0001636F7D
:10100C00000E646F000E656F000E666F000E676F4A
:10101C00000E686F1200600E0001AD6F000EAF6F16
:10102C00010EB36F080EB16F000EB06F000EAC6FF7
:10103C001200020E0001846F400E856F020E866F47
:10104C00000E8C6F090E896FC79C120003EC08F020
:10105C0088EC07F011EC08F01FEC08F01200040803
:03106C000C101451
:047FFC00E0EF07F0BB
:020000040020DA
:10000000FF0FFF0FFF0FFF0FFF0FFF0FFF0FFF0F80
:10001000FF0FFF0FFF0FFF0FFF0FFF0FFF0FFF0F70
:10002000FF0FFF0FFF0FFF0FFF0FFF0FFF0FFF0F60
:10003000FF0FFF0FFF0FFF0FFF0FFF0FFF0FFF0F50
:020000040030CA
:0A0000008CFFF7FF9FFFFFFFFFFFDB
:00000001FF
