:04000000FEEF3FF0E0
:0B0D0000000240020900888EE8EE00AF
:100D0C00266E000E2A6E2A500C0D6100CCF32BF5CA
:100D1C0026C527F520C528F521C529F5030E2C6E0F
:100D2C002750030B226E236A060E2224F66E0D0E3C
:100D3C002320F76E600E246E050E256E2B50242694
:100D4C00000E25222C502424D96E000E2520DA6E9C
:100D5C000800F5C4DFF42740E8423F0B276E2C0651
:100D6C002C28D8A4BCEF06F0BEEF06F096EF06F0E8
:100D7C00040E2B26030E2C6E2850030B226E236AB6
:100D8C00060E2224F66E0D0E2320F76E600E246ED6
:100D9C00050E256E2B502426000E25222C502424C3
:100DAC00D96E000E2520DA6E0800F5C4DFF4284059
:100DBC00E8423F0B286E2C062C28D8A4E8EF06F04E
:100DCC00EAEF06F0C2EF06F0040E2B26030E2C6E93
:100DDC002950030B226E236A060E2224F66E0D0E8A
:100DEC002320F76E600E246E050E256E2B502426E4
:100DFC00000E25222C502424D96E000E2520DA6EEC
:100E0C000800F5C4DFF42940E8423F0B296E2C069C
:100E1C002C28D8A414EF07F016EF07F0EEEF06F02D
:100E2C002A2A030E2A641DEF07F01FEF07F089EF43
:100E3C0006F012004AEC08F000018A9D000E206EAC
:100E4C00000E216EFF0E86EC06F0D8EC07F0290E92
:100E5C002E6E960E2D6E7F0EE82EFED72D2EFCD705
:100E6C002E2EFAD700F0FF0E206E000E216EFF0E14
:100E7C0086EC06F0D8EC07F0290E2E6E960E2D6E31
:100E8C007F0EE82EFED72D2EFCD72E2EFAD700F093
:100E9C00FF0E206E000E216E000E86EC06F0D8ECD4
:100EAC0007F0290E2E6E960E2D6E7F0EE82EFED7B5
:100EBC002D2EFCD72E2EFAD700F0FF0E206EFF0E33
:100ECC00216E000E86EC06F0D8EC07F0290E2E6E83
:100EDC00960E2D6E7F0EE82EFED72D2EFCD72E2EC5
:100EEC00FAD700F0000E206EFF0E216E000E86EC7D
:100EFC0006F0D8EC07F0290E2E6E960E2D6E7F0E96
:100F0C00E82EFED72D2EFCD72E2EFAD700F0000E91
:100F1C00206EFF0E216EFF0E86EC06F0D8EC07F06B
:100F2C00290E2E6E960E2D6E7F0EE82EFED72D2ED0
:100F3C00FCD72E2EFAD700F024EF07F0FEEF3FF08F
:100F4C00100EBE6E000EBF6E000EC06E2F0EC66E63
:100F5C00300EC76EC868330E0401106F000E086F98
:100F6C00370E006F000E096F000E016F000E116F2F
:100F7C00000E026F000E0A6F000E126F370E036F19
:100F8C00F00E0B6F13693F0E046FF00E0C6F1469AB
:100F9C000E0E02016A6F1B0E0F6F1C0E106F120EDD
:100FAC006B6F12000001848F300E826F000E206E6A
:100FBC00B6A2E3EF07F0E5EF07F0DEEF07F0600E07
:100FCC002024D96EDA6A050EDA22DF500001816F17
:100FDC00202A2F0E2064F5EF07F0F7EF07F0DEEF75
:100FEC0007F0150EE82EFED700F00001849F1200CA
:100FFC00A60EF66E100EF76E000EF86E01EE2FF1C7
:10100C0010EE05F00900F5C4EEF4E550E150FAE1FC
:10101C0001EE60F1300EEE6AE806FDE101EE01F141
:10102C001F0EEE6AE806FDE1000EF86E0D0EF76E6F
:10103C00000120EF07F0000E0001636F000E646FDB
:10104C00000E656F000E666F000E676F000E686F06
:10105C001200600E0001AD6F000EAF6F010EB36F8A
:10106C00080EB16F000EB06F000EAC6F1200020EC6
:10107C000001846F400E856F020E866F000E8C6F20
:10108C00090E896FC79C120021EC08F0A6EC07F042
:0F109C002FEC08F03DEC08F0120004080C1014C3
:047FFC00FEEF07F09D
:020000040020DA
:10000000FF0FFF0FFF0FFF0FFF0FFF0FFF0FFF0F80
:10001000FF0FFF0FFF0FFF0FFF0FFF0FFF0FFF0F70
:10002000FF0FFF0FFF0FFF0FFF0FFF0FFF0FFF0F60
:10003000FF0FFF0FFF0FFF0FFF0FFF0FFF0FFF0F50
:020000040030CA
:0A0000008CFFF7FF9FFFFFFFFFFFDB
:00000001FF
