:04000000FEEF7FF0A0
:0B160000000240020900888EE8EE00A6
:10160C00266E000E2A6E2A500C0D6100CCF32BF5C1
:10161C0026C527F520C528F521C529F5030E2C6E06
:10162C002750030B226E236A060E2224F66E160E2A
:10163C002320F76E600E246E050E256E2B5024268B
:10164C00000E25222C502424D96E000E2520DA6E93
:10165C000800F5C4DFF42740E8423F0B276E2C0648
:10166C002C28D8A43CEF0BF03EEF0BF016EF0BF050
:10167C00040E2B26030E2C6E2850030B226E236AAD
:10168C00060E2224F66E160E2320F76E600E246EC4
:10169C00050E256E2B502426000E25222C502424BA
:1016AC00D96E000E2520DA6E0800F5C4DFF4284050
:1016BC00E8423F0B286E2C062C28D8A468EF0BF0C0
:1016CC006AEF0BF042EF0BF0040E2B26030E2C6E80
:1016DC002950030B226E236A060E2224F66E160E78
:1016EC002320F76E600E246E050E256E2B502426DB
:1016FC00000E25222C502424D96E000E2520DA6EE3
:10170C000800F5C4DFF42940E8423F0B296E2C0693
:10171C002C28D8A494EF0BF096EF0BF06EEF0BF097
:10172C002A2A030E2A649DEF0BF09FEF0BF009EFB2
:10173C000BF01200BFEC0CF000018A9D000E206E25
:10174C00000E216EFF0E06EC0BF04DEC0CF0290E8A
:10175C002E6E960E2D6E7F0EE82EFED72D2EFCD7FC
:10176C002E2EFAD700F0FF0E206E000E216EFF0E0B
:10177C0006EC0BF04DEC0CF0290E2E6E960E2D6E29
:10178C007F0EE82EFED72D2EFCD72E2EFAD700F08A
:10179C00FF0E206E000E216E000E06EC0BF04DECD1
:1017AC000CF0290E2E6E960E2D6E7F0EE82EFED7A7
:1017BC002D2EFCD72E2EFAD700F0FF0E206EFF0E2A
:1017CC00216E000E06EC0BF04DEC0CF0290E2E6E7B
:1017DC00960E2D6E7F0EE82EFED72D2EFCD72E2EBC
:1017EC00FAD700F0000E206EFF0E216E000E06ECF4
:1017FC000BF04DEC0CF0290E2E6E960E2D6E7F0E0E
:10180C00E82EFED72D2EFCD72E2EFAD700F0000E88
:10181C00206EFF0E216EFF0E06EC0BF04DEC0CF063
:10182C00290E2E6E960E2D6E7F0EE82EFED72D2EC7
:10183C00FCD72E2EFAD700F0A4EF0BF0FEEF7FF0C2
:10184C00000EBE6E000EC06E3F0EC66E330EC86E1E
:10185C00130E0401106F370E006F000E016F000E97
:10186C00116F000E026F000E126F370E036F330EE6
:10187C00136F3F0E046F3F0E146F120E02016A6F4E
:10188C001C0E146F1B0E136F150E6B6F12000001E4
:10189C00848F300E826F000E206EB6A258EF0CF0C3
:1018AC005AEF0CF053EF0CF0600E2024D96EDA6A6C
:1018BC00050EDA22DF500001816F202A2F0E2064E2
:1018CC006AEF0CF06CEF0CF053EF0CF0150EE82EE9
:1018DC00FED700F00001849F1200900EF66E190ED8
:1018EC00F76E000EF86E01EE2FF110EE05F0090008
:1018FC00F5C4EEF4E550E150FAE101EE60F1300E82
:10190C00EE6AE806FDE101EE01F11F0EEE6AE80653
:10191C00FDE1000EF86E160EF76E0001A0EF0BF055
:10192C00000E0001636F000E646F000E656F000EF9
:10193C00666F000E676F000E686F1200600E00017C
:10194C00AD6F000EAF6F000EB36F080EB16F000ECF
:10195C00B06F000EAC6F1200020E0001846F400ECF
:10196C00856F020E866F000E8C6F090E896FC894FE
:10197C00120096EC0CF026EC0CF0A4EC0CF0B2EC93
:09198C000CF0120004080C101408
:04FFFC0073EF0CF0A3
:020000040020DA
:10000000FF0FFF0FFF0FFF0FFF0FFF0FFF0FFF0F80
:10001000FF0FFF0FFF0FFF0FFF0FFF0FFF0FFF0F70
:020000040030CA
:0A0000008CFFF7FF9FFFFFFFFFFFDB
:00000001FF
